:100000004D424E014D34485066010400010000008D
:100010006000000000C000000000000000000000C0
:100020000000380100000000000000000004000093
:100030000100660101002600000400000098000095
:100040000200090127002B00009C000000140000A2
:10005000030009012C002F0000B000000010000078
:100060000038002035020000000000000000000001
:100070000000000000000000000000000000000080
:100080000000000000000000000000000000000070
:10009000000000000000000000000000550000000B
:1000A0005700000051010000790000008D000000A1
:1000B00000000000FEE708B5044B01221A70044B53
:1000C0000022DA77034B1B68984708BD0000002028
:1000D0000800005034000020034B01225A70A02376
:1000E0000022DB051A70704700000020034B01223C
:1000F0009A70A0230022DB059A7070470000002050
:100100008D23013B002B01D0C046FAE7044B10229F
:100110001B78DBB21807C00F134018437047C04666
:100120002B0000500F4BF7B518261E700E4BA02762
:100130001E70FFF7E5FFFF050B4B01AC00252C37C8
:1001400060701D703E70FFF7DBFF064B20703D7046
:100150001D7023786278181C504040001340034300
:10016000D8B2FEBD2A0000502D00005000230360CD
:1001700030B50B601312012B13D10423013B10D3B4
:10018000084DD4B25D5D641BF8D4074A9D00126827
:10019000AA58002A05D012190260044AD35C1C1B1D
:1001A0000C6030BDE0030000DC030000E40300004D
:1001B00070B58022D2051379DBB2002B19D12B4CFC
:1001C0006360A3602A4B1289261C251C1B6892B20F
:1001D00010361435E260301C291C002B06D09847DD
:1001E0002169002937D1E268301C291CFFF7BEFFC6
:1001F00031E0012B0CD11D4B186900282BD09968D8
:100200005C69A14227DA4C1C9C60137A435422E0BB
:10021000022B1BD1154C2369002B12D06068616939
:1002200088420EDA1B5C1BBAD360124B1B68002B92
:1002300003D0E268101880B29847636801336360A6
:1002400009E080230022DB05DA6004E0032B02D101
:10025000064B00229A60C0468023DB0501221A70FB
:10026000C04602221A7000221A7070BD00000020E1
:100270003C0000203800002080230222DB05FF32F2
:100280001A600421024AFF31118000221A7070475F
:1002900006000040F0B5A023DB059B68534A1F21F0
:1002A0008DB0DBB21160D12B0BD0D02B01D8013334
:1002B000DBB2A022D2059168FF20814319439160EF
:1002C000F1E74B4B4B4A191D043B934203D20022EA
:1002D0001A600B1CF6E7FFF7CFFF474A8023DB02CB
:1002E0001A80464A0027093A92B25A809F80C04637
:1002F000434ADE88434D10685268434C0A922A886C
:1003000009ABB6B21A8123625E810990FFF70AFF3A
:10031000A023DB05DA7C03AB1A7034214D225A701E
:1003200099705A7148214522D9709A7150219C22A6
:100330001971D8716362520005AB0597A3611A80E9
:1003400007AB01220797E3615A70304B0697DA89B1
:100350002F4B08975F882F4B211C1B8828310B706F
:10036000211C1B0A29310B702B4901235B420B70A6
:100370002A482B4903700B702A48211C2E312F3438
:1003800003700B7023702B889E4229D1264B9A4212
:1003900026D0BA4224D1254EF7899F4220D0F68933
:1003A000B446234E7788BC451AD1224FF88998422B
:1003B00016D0FF89EB889F4212D1174B17481A704D
:1003C000120A73880270164A9BB2164813701B0AF1
:1003D0000370EB889BB20B701B0A237000F048F887
:1003E000154B02221A6062B6FEE7C0462800005094
:1003F00004000020400000200004000000C00000B5
:10040000F0BF0000F8BF0000000000200004000062
:10041000FC9B0000FE0300002A0000202B000020AF
:100420002C0000202D000020FFFF0000009C000099
:10043000FCAF000000B0000000E100E01800002068
:100440002030407008080C08FFFFFFFFFFFFFFFF90
:10045000FFFFFFFFFFFFFFFFFFFFFFFFFFFF380171
:100460004D344850434F54320000000000006601F4
:10047000F0B5B7B002AF03F0FAFB05F09FF8B86132
:1004800008F0DEF808F00CF909F0F2FB00F032FB9E
:10049000B34AB44B1A60B44AB44B1A60B44AB54B71
:1004A0001A6005F08BF8041E052C00D128E1052800
:1004B00014D8022800D1E0E006D8002822D0012874
:1004C00000D1CDE0BC61ECE7032800D10AE10428AB
:1004D000F8D105F0F9F802F057F90CE1092800D13C
:1004E0002BE107D8072800D113E10828EAD105F04D
:1004F000EBF818E10A2800D148E10B28E2D105F019
:10050000E3F807E205F070F80028DBD10125012DA2
:1005100002D0022D0AD095E0002001F01FFE02F06B
:10052000DDFFC0B205F09EF901F0FEFD924B6D4675
:100530001B683D6158681E681B694643F3189B00A1
:100540000A33DB08DB00E91A8D4602ADFD613D1C74
:100550009435281C0021142208F0F4F93A1CBC320E
:10056000BA64143AFA64283A3D657A65834D143AC0
:10057000FA63143A3A642A680020FF3250728048C5
:100580003B1C0268443353617E4BF8691B68391C7D
:10059000B600861938311060916156602D331A7893
:1005A00069465200131C0833DB08DB00C91A8D466C
:1005B00002AB181C00217B6108F0C4F905F004FAB5
:1005C000FA694178331C002000F07CFCB8690028EF
:1005D00001D005F079F82B680021996005F03CF90D
:1005E000051C02F07BFFA84204D0281C02F07BFF10
:1005F00002251DE07D693A1C00953B1C311C4432EC
:100600003833F86901F01AFA5C4B5F4A1B68051C25
:100610009968914202D09A6801329A60002807D105
:1006200004F0E2FF002803D104F0C8FF0028D5D071
:100630005348002302681360536053619361396922
:10064000BB618D4604F0D0FF002803D0002000F0ED
:1006500093FE37E704F0B2FF002800D157E7F5E733
:1006600005F032F804F0AAFF0128FBD007F0C4FF20
:1006700000F040FA04F0A6FD24E700F051FE404BE4
:100680001B68586900F078FE04F0DEFE002003F0DD
:10069000E1F903F045F900F047F901F045FD05F0F7
:1006A00013F805F02BF803280DD004D801280AD040
:1006B000022808D00FE005280BD007D306280AD15E
:1006C00002F0DCFC07E002F097F804E004F0A4FB81
:1006D00001E002F0C1FC04F071FF0228E1D000F05B
:1006E00031FEEFE604F0F0FF01F01EFD04F066FFBE
:1006F0000328FBD0E6E604F061FF0428FBD0E1E626
:1007000004F0E2FF03F0E8FA04F058FF0528FBD0FC
:10071000D8E604F0D9FF012001F020FD04F04EFFDF
:100720000728FBD0CEE6002003F0BEF803F0A0F9C6
:1007300004F044FF0828F6D0C4E604F0C5FF00200A
:1007400002F095FB002003F0AFF803F091F904F0FC
:1007500035FF0928F6D0012002F089FBB2E6C04639
:10076000295800003C000020A55800003800002057
:10077000E114000034000020340300204000002079
:1007800044000020880D0020FFFFFF7F6D46002001
:100790003D6107F0BBFF07F083FF002003F05AF92B
:1007A0005F4D69462B685E6818681B694643F318FD
:1007B0000733DB08DB00C91A8D4602AAFA6102F092
:1007C000CFFA02F0E5FA02F0D7FAFB699E19181C7D
:1007D000311C7E6103F032FB2B686D465A681B6941
:1007E000D3189B000A33DB08DB00ED1AAD4602ADDF
:1007F000BD6104F069FF4A4D20202B6819681A7901
:10080000C15521202221C255CA555A1DD27F1B69CC
:1008100023202421C255CB5525220123D355FB6922
:100820000022391C00930420131C203104F092FF95
:100830007969F86904F010FA002003F035F82B68A4
:1008400038485D6806687D60002139603A687D68D7
:10085000AA4208DA3A68B16992008958BD69A9507C
:1008600039680131F1E7AA00BD691969AD18066858
:100870003960AC4600223868824206DA316A90005C
:100880000958654629500132F5E71A682821CA55EA
:1008900078689A6829252A21E855CA550533DB7FEF
:1008A0002B25EB5504252D233968DD551D4B0132D1
:1008B0001B6892005B692C209A18C1550092391C64
:1008C0000022131C0220283104F044FF01233020B1
:1008D000C355134B31211B6832201A79CA55C255B2
:1008E0005A1DD27F1B693321CA553422D355352373
:1008F000DD55BD690022391C05203031131C0095DF
:1009000004F028FF04F05AFE0A2800D173E73D697D
:10091000AD46D7E504F052FE0B28FBD0D2E5C04629
:100920003403002040000020F8B5184D7146281C03
:10093000764603F0E7FA164C276802F063FE786209
:10094000276802F063FEB862276802F063FE7861F0
:10095000276802F063FEF861276802F0B1FEB86113
:10096000276802F0C3FE0B4B0B491B68096838620D
:100970001878097C2268414302331161FC32281C3B
:10098000311C536003F0D6FAF8BDC046C908000018
:1009900040000020D00E0020880D0020014B186080
:1009A0007047C046880D0020014B18687047C0464C
:1009B000880D0020014B18607047C046D00E002003
:1009C000014B18687047C046D00E0020014B1868D4
:1009D0007047C04640000020014B58687047C04631
:1009E0004000002082B0F0B589B0109C151C0F9318
:1009F0000693029407900E1C119C02F0B1F94779FE
:100A00003A4B04978279964206D11B680021DA6935
:100A1000AB00D05A03910BE01A68354B5269196844
:100A2000731C896803964B43EB1801339B00D05A23
:100A30000499714349194A00A4182388069E01931A
:100A4000019F7318874203D8C61B029FBE521CE049
:100A5000029EB61805960027F65F013610D01F7863
:100A60007EB2B446013601DA013703E06646002E55
:100A700006DD013F1F7002235B42238001202FE02F
:100A8000069F79180F78002F01D120800CE07FB2EB
:100A90007C1C05D1019E059F301A3880002002E0A1
:100AA000012F01D1FF2008701978039C049E079F35
:100AB00048B274437D19002805DC029EB25E013203
:100AC00008D0002906D12A5700203E2A08DC01312F
:100AD000197005E02A57002A01DD0139197000203C
:100AE00009B0F0BC08BC02B01847C0464000002066
:100AF0003403002037B5114C7146201C754603F0B5
:100B000001FA05F083FC02F043FF021E07D169469B
:100B1000A923888000900B7104F056FEFEE7084B75
:100B20001B6803CB02F0B0F905F088FCFFF7FCFE70
:100B3000291C201C03F0FEF937BDC046950A0000B1
:100B40003403002038B5144C7146201C754603F060
:100B5000D9F9124B00221B68191CA0310A60181C1D
:100B60000121B43049420160826008380260C182CC
:100B70004283103802604161C2610C300183191C4C
:100B8000C431026098330A8020390A60201C291C75
:100B90001A6003F0CFF938BDE50A000040000020DC
:100BA000F0B5754685B00395294D01900F1C281CA2
:100BB000714603F0A7F9274B00211B680198DA69F9
:100BC000920007F0BFFE04F0FFFE02904478214D32
:100BD000002C21D0042002F067FE28684269561ECE
:100BE000009617D383690099019E5943C91889005B
:100BF00071180439013B0BD3866856439E190136A0
:100C0000B600F5590E68AC46B44465460D60F0E791
:100C1000009AE4E7013CDAE72F687D69013D11D3D2
:100C2000BC69019A261C6E433619B6009619043E1B
:100C3000013CF3D3029B3068597807F073FD000440
:100C40003060F4E70248039903F074F905B0F0BD91
:100C5000410B00003403002038B5054C7546714641
:100C6000201C03F04FF9291C201C03F063F938BD48
:100C7000F90B0000F0B52F4F73468BB07146381C4E
:100C8000019303F03FF92C4D2B681A1CE4321178C4
:100C9000603A002904D1191CC8310978002901D013
:100CA000002111701478002C26D01A1C883212688A
:100CB00003A907925A6B00240892DB6A07AA0993DA
:100CC00003234B708B707C235B42CB700126102377
:100CD000201C8C800E700B7104F076FD29680B1CB3
:100CE00088338C311A6809688A4202DC92191A60CA
:100CF00019E01C60341C16E05A6B05A90792DB6AE8
:100D00000920089301230B7002234B708B707C2306
:100D10005B42CB7007AA64238C800B7104F054FDF6
:100D20002B6888331C60381C019903F003F9201CE0
:100D30000BB0F0BD150C000040000020F0B587B0EE
:100D400000AF7546786039615C487146FD6003F01C
:100D5000D9F803F01DF883000A33DB08DB006E4688
:100D6000F61AB546041C684603F01AF86300083307
:100D7000DB08DB00F61A6D46301CB546BE6003F09A
:100D80002BF84F4B1B68191CA0310A68632A07DD3A
:100D90000120002240420A604861CA6108390A60A5
:100DA0001A1CA032116801311160191C9C310E68A7
:100DB000632E09DD002201200A60CA6140421A1C2C
:100DC00048619832012111601A1C9C32116801316E
:100DD0001160191CAC310A68012A07DD01200022CC
:100DE00040420A60C8824A8308390A601A1CAC3241
:100DF000116801311160191CA8310E68012E09DD3E
:100E0000002201200A608A8340421A1C0883A4320F
:100E1000012111601A1CA8321168013111600022F1
:100E2000101C013C08D3A1006958BE68401861003D
:100E3000715A521892B2F4E7191CC2310024BC2630
:100E40001D19B446AC447D6165462D68854201D2CA
:100E5000664630607E69B4363568854200D93060B8
:100E60008E88964200D28A800E88964200D90A80E7
:100E7000043C261C02390836E1D11A1C983212684B
:100E80007D6892009A18111CB831B0320968126856
:100E90003E698A1A2A801A1CA43212680748520036
:100EA0009B181A1CC432C03312881B88F968D31AE5
:100EB000338003F03FF8BD4607B0F0BDDD0C000005
:100EC00040000020F0B5284E85B075460191041C05
:100ED0007146301C1F1C0395009203F013F8234D3C
:100EE00000212B680098DA68920007F02BFD2B6830
:100EF000381C1A690021920007F024FD019D002D85
:100F00000CD0201C02F0D0FC194B00981B68391C37
:100F10005A69DB6905F03AFA013DF0E7002C0FD180
:100F2000134B1B685D699E69029502F05AFB051C14
:100F300002F060FB311C031C2A1C029804F05CFDCB
:100F40000098391C019A04F049FF002C06D1084B87
:100F5000201C1D6802F05CFEFC35A8600248039965
:100F600002F0E8FF05B0F0BD650E0000340300207C
:100F700040000020F0B595B004AF75467861396146
:100F8000A5487146FA61BB61FD6002F0BBFF04F049
:100F90001BFDA24B6C461B68BC601C687862043465
:100FA0006400221C0832D2086846D200851A5A68AA
:100FB000AD4604325200131C0833DB08DB006846E0
:100FC000C01A04AD854604AE301C00213D6207F016
:100FD000B9FC221C0021386A07F0B4FC904C7D69F2
:100FE00023685A69191C9B690095386A2C310430B2
:100FF0000190301D0290F86904F092FF2368894D3A
:10100000191C78313960796A78602A68097B5869D7
:1010100092680091396A029601912C33396807F081
:10102000AFF8BA68236838699546191CDA691B6AF3
:1010300000902C31B86905F00DF97E6821680643EF
:10104000F6B22C31F8693E6204F052FD04F0CEFC99
:101050000679012E0BD12B685B691B78002B06D11A
:1010600004F0C2FA012802D0301C02F02AF82568E8
:10107000281C291C78312C3004F018FF6A4A236898
:101080001268E8670C24115F9D6E8D420EDC0E2005
:10109000115EDC6E8C4209DB1025515F186F8842AF
:1010A00004DC1221525E5B6F934221DA00233B87FE
:1010B00038220123D35504F0B3FA002818D104F0E4
:1010C00013F9002814D0564B1A68FF239168FE29A3
:1010D00001DC9368DBB2381C022139243830E35537
:1010E00004F0F8F9514802F061FF01F0EBFEE2E78D
:1010F0004A4E2921336828255A681868CA559A68C3
:101100002A23DA558023E8555B4202252B432B2006
:101110000024C3552C215323BC850132CB55FB69D8
:101120005200391C9A180120283104F04DFB326816
:101130000121137C3020C15531203221C355CB55BC
:1011400080235B422B433322D35534206D23391C3B
:10115000BC863031C355BA69012004F035FB3368D1
:1011600038211A683920CA555968C1559A683A20F9
:10117000C255591DC97F3B20C1551B693D203C21EB
:10118000CB55C35D7F218B43802149422B430B43C9
:101190000132F96952008A18391CC35538310120CF
:1011A000231C0092221C04F0D5FAFFF755FDFFF72F
:1011B00061FDA04227D11A4C2368586902F0A2FCB5
:1011C0002368D86F02F098FB02F064F93D6A002DA5
:1011D0000DD12368F9691A1C2C321B68786904F058
:1011E00013FD236838691A68B96904F067FD0220A5
:1011F00001F094FFB86905F0E9F920680024803017
:1012000006F08AFD00E02C1C0348F96802F092FE0B
:10121000201CBD4611B0F0BD150F000034030020A6
:101220004000002044000020D00E002010270000C5
:10123000F0B585B002AF7446051C3C607960141CA3
:101240007146144802F05EFEA200131C0A33DB084C
:10125000DB006946C91A8D4602AC201C002107F04C
:1012600071FB0D4E281C3268516A936A78320092E5
:10127000221C06F073FD33687A68596A281C9B6A41
:101280000092221C06F02EF93968024802F052FE44
:10129000BD46F7BDD111000040000020F7B51E4F3C
:1012A00075460C1C161C7146019500901D1C381CBF
:1012B00002F028FE211C2B1C321C009806F042FB79
:1012C000201C05F0DBFB154B201C1B68596A9A6A31
:1012D00006F04EFC201C05F001FB2A1C201C311CD2
:1012E00005F0A2F904F082FB051C05F0A1F8963088
:1012F00003783C1C002B09D12B79002B06D004F07D
:1013000073F9012802D0012001F0DBFE201C0199B5
:1013100002F010FEF7BDC0463D1200004000002064
:1013200038B5074C7146201C754602F0EBFD07F0FE
:1013300033F901F01BFD291C201C02F0FBFD38BD18
:10134000C112000038B50B4C7146201C754602F0E6
:10135000D9FD07F0E1F907F027F901F007FD0020BA
:1013600002F078FB01F08AFE291C201C02F0E2FD4D
:1013700038BDC046E5120000F0B5C5B000AF7346F9
:101380007146041C38487B603E1C02F0BBFD381CD3
:101390002C360021142240303D1C07F0D3FAE835EA
:1013A000301C0021142207F0CDFA00212822281C2D
:1013B00007F0C8FA381C0A220C30002107F0C2FAE4
:1013C0003B1C6833D022D351143BD422D351402349
:1013D000DB19D822D351DC23DE51E0220C23D55176
:1013E000DB19E422D351204E002C2AD16A46583D05
:1013F0003A60281C211C142207F0A4FA3B1CB833C5
:10140000FB61143B3B62283BBB62184B7D621B684F
:101410001B6A5B00023B9A1C02D0FF22EA52F9E7EA
:10142000381C391CCC30183105F048F905F078F932
:10143000381C391CCC30183105F0E0FB3B689D4668
:101440000BE0381CCC30211C05F038F905F068F9A8
:10145000381CCC30211C05F0D1FB301C796802F01F
:1014600069FDBD4645B0F0BD1913000034030020EE
:10147000F7B5304E7146301C754602F043FD04F05E
:10148000D7FF2D4C9630236801781A79002902D1B4
:1014900051B2481C04D10027DF60BA420DD118E0D8
:1014A000D8681A69904202DAD8680130D8600129F8
:1014B0000FD0DB6893420CDB012700223B1C6946FE
:1014C0000E33101C8A8000920B7104F07DF92368A2
:1014D0001F7123681A79002A03D1184A12681278FA
:1014E00004E0012A03D1154A126852781A6018687C
:1014F00002F038FD2368071CFC33986802F056FDA3
:101500003F1A002F0BDD2368186802F02BFD2368BB
:10151000071CFC33986802F049FD381A00E00120EE
:1015200001F0CFFD01F0EEFD301C291C02F002FDA0
:10153000F7BDC0461114000040000020D00E00206E
:1015400038B5094C7146201C754602F0DBFC04F0EE
:101550004BF8002802D1022002F07EF9291C201C41
:1015600002F0E8FC38BDC046E1140000F0B5734657
:1015700091B0041C0E1CAF487146059302F0C2FCEA
:1015800004F034FA049004F053FF2278AA4B002AA6
:1015900008D172300278511E8A41D2B20292002ADA
:1015A00006D001E0012002901A680021D03205E047
:1015B0001A68D0321168FE2901DC013111601B6804
:1015C00000211A1CCC3211700299002904D09B49C9
:1015D0000968097D00295FD0181CCB300178C9B299
:1015E000002908D003785BB2022B00D001231370CE
:1015F0000023037084E11D1CC8352C78002C09D011
:10160000012414701A1CC932D4330170297011706E
:10161000196076E1029800283ED1191CD4310C687B
:10162000002C09DD013C012C01D00C6034E0029B50
:101630000B600323137064E11A1CFC32526811889A
:101640007F4A914228D01A1CE03211887D4A1268E4
:1016500052888A4220D8794C2068427C181CD030AD
:101660000068904218DB0EAA1180E2331B8806A99D
:101670005380029B02988B8001230B7002234B70D6
:101680008B70CB7015230B7104F09EF86A4B2268A7
:101690001B68927CD4331A60684C2768F87C002859
:1016A00000D02DE10299644D002900D08AE02C6819
:1016B000231CFF331B78002B5CD03B1C2C331B7886
:1016C000002B57D0231C0E91F4331B680393231C6B
:1016D000E03303981A8843009A533B1C2D33197842
:1016E00002984B00F618031C994206D05A00B21A11
:1016F000023A128801338018F6E707F061F80E907D
:10170000FA8B231CF833904202DA1A68013200E0A7
:1017100000221A603B1C221C2E33F8321B78126800
:101720009A4219DD7C2308A900265B420124CB7074
:10173000301C16230EAA8E800C700B714C708C70AE
:1017400004F042F82B68301C1A1CF432F83316608F
:101750001E6004F07BF8D4E03B1C2D331A7803990B
:10176000231C013AF433914202DA0A1C013200E0F0
:1017700000221A60DC340137FB7F22689A4219DBB1
:1017800000240AA91223201C221C8C800A940B71AD
:1017900004F01AF82A682948131CD833196800681D
:1017A000013119600230C07F814203DB1C60CC3202
:1017B000022313702A680023111CCA31DC320B701B
:1017C000136049E02B681A1CD43210602A32127858
:1017D000002A41D0191CE03109880EAA1180E23399
:1017E0001B880CA9538001230B7002234B708B7054
:1017F000CB70192388800B7103F0E6FF2B682268F9
:10180000191CE0310C88D08B163984421CD2181C6C
:10181000E2300488508D844216D2097800291BD109
:10182000DC3301321968D27F914215DA0131196037
:1018300012E0C0460D15000040000020880D002079
:10184000FFFF0000D00E002001220A70191C0022A8
:10185000DC31D8330A601A602D4D2B681A1CFE3219
:101860001278002A4CD104980279002A46D01A1C1A
:10187000C8321478002C43D1264ED86A3768798B49
:10188000BA8BFB8A3F8B009704F058F836682B68B8
:10189000718CB28C071CD86AF38C368D009604F0DC
:1018A0004DF82B681A1CE0321188E233B94202DA93
:1018B0001A88824214DB08AA11801B880EA9538063
:1018C0000223002001254B708B70CB70172388807A
:1018D0000D700B7103F078FF0D4B1B68C9331D7041
:1018E0000B4B1B681A1CC9321278002A08D00299C7
:1018F000002905D0C83301221A7002E0C9331A70DA
:1019000001240548059902F015FB201C11B0F0BD1B
:1019100040000020880D00200D150000F7B5754629
:101920000195424D7146041C281C02F0EBFA404E12
:1019300033681A1CC9321278002A24D01A1CFE32CD
:101940001278002A1FD11A1CE432117800291AD10A
:10195000C8331B78002B16D10123137001F00CFA49
:10196000071C01F0FDF9334A031C12685D3303CAFA
:101970003A1C9B3204F0E4F901F062FF022001F00E
:101980006BFFFFF7DFF833681A1CE4321278002A85
:1019900045D01A1C0020C8321070274A00901768E2
:1019A000011C3A6A013A0BD3E5685600755B002DBD
:1019B000F8D02EB20131B042F4DA301C0092F1E7D7
:1019C0001A1CFE321278002A0ED101290CDD0122E8
:1019D00022703A6A013A09D300998A42FAD0E5683E
:1019E000510000204853F5E7002903D01A1C0021BC
:1019F000EC3208E01A1C181CEC32E8301168006860
:101A0000814201DC013111601A1CEC321168043A88
:101A10001268914205DDC83301221A7001E0EC33EF
:101A20001A600248019902F085FAF7BDBD1800005E
:101A3000400000204400002034030020F0B5C1B075
:101A400002AF7546F861B961D94871467D603A6266
:101A5000BB6002F057FAD74E6C4632683C6113689F
:101A600092689D1C520055430133291C5208534370
:101A70000831C908C900601A8546013302AC5B0011
:101A8000FC62E318CC4CBB622368FC6A00219C60BA
:101A9000BC6A4C22DC60C94C20682C3006F052FF36
:101AA0002A1C0021F86A06F04DFFA62300203821E9
:101AB00000253887CB55391C2A1C281C34317D63FE
:101AC00003F082FEFFF7D4FC21683C25081CE030BF
:101AD000E231FFF733F9316800234022D35301206C
:101AE0000B79E8553D223E25D355EB5540225B232B
:101AF000D355042123683F20C155391C9A6902201F
:101B00003C3103F061FE326800254823DD5301219A
:101B1000137C4420C15545254620EB55C355482527
:101B20006C23EB55042223684721CA55391C1A6AD5
:101B30000220443103F048FE23683D1C1A1CE032A9
:101B40001288DC352A80E2331B88391C4C31012293
:101B5000002088800A700A716B800C2002232A1CE6
:101B60004B708B70CB7003F02FFE3368391C5A68B2
:101B7000186854314A709A680870581D1B698A7039
:101B8000C07F0B7104234B71236801325B699200A3
:101B90009A18C87000920022131C022003F0DAFD8C
:101BA000F869B969FA6ABB6AFFF7E4F9F8620028D4
:101BB00003D0386AFFF7E0FBCEE0684692B002AC93
:101BC00092B0BC6202AC8AB0FC6102AC90B002AED2
:101BD0008AB0BC6102AC88B0F8607C62F96A02AC81
:101BE0004022B86A7C6106F0ADFEF96A4022F869CD
:101BF00006F0A8FEF96A2022B86906F0A3FE301CA0
:101C0000F96A402206F09EFEF96A2022786A06F000
:101C100099FEF96A2022786906F094FE3C1CF96965
:101C2000C034B86A7B6AA1606349BA696060636165
:101C300078690B68E2601C63A061396A201C10227D
:101C40002661FFF7F5FA3E1C8AB002AA8436BA6212
:101C5000F96A1422301C06F075FE381CF96A142249
:101C6000703006F06FFEF96A2822B86A06F06AFE44
:101C7000381CF96A0A22643006F064FE3B1CAC335F
:101C80006B60143BAB604C4A7023DB192B61B86A64
:101C900013686421C9196861A961EE60201C1D6187
:101CA000291C3A6ABB68FFF7F9FA88235B00D95907
:101CB000281CFFF75BFC424B1B681B7D002B02D1ED
:101CC000281CFFF72BFE3C1CDC34201C396A04F076
:101CD00095FF25786C46AB000733DB08DB00E41A80
:101CE000A54602AC3C622E1C12243B1CDC33D86897
:101CF000025F002A09DD3A6A013E5B69B0006100BB
:101D000010185918042206F0DBFD023CA31CECD18C
:101D1000284B391C1B685C311C6858689A680C7029
:101D200048708A700533DB7F0132CB707E235B42C3
:101D30004B71224B52001B6800249B6A0C719A184D
:101D400000923B6A03202A1C03F004FD1A4B1B6817
:101D50001C611C63FC68A546174B00221B689A6037
:101D6000DA603D69AD4601F037FC01F069FD01F034
:101D7000FFF9012001F098FD01F04EFB0F4BCC2044
:101D80001B68185600F0F2FB041E00D1FC6A0D4BD4
:101D90001B681A680C4B9A4202D001F09DFFFEE7C7
:101DA0000348796802F0C6F8201CBD463FB0F0BD7C
:101DB000DD19000034030020440000204000002012
:101DC000880D0020F40E0020CDCDCDCDF0B59DB016
:101DD00002AF74467146CF487C6002F093F800F081
:101DE000BFFF061C00F0D4FF386100F0C5FFCA4BEE
:101DF0006D461C68B860E36800211A1C0E32D208D8
:101E0000D200AD1A2269AD460E32D208D200684621
:101E1000801A02AD8546FD6102AD7D6272799A1825
:101E2000131C0E33DB08DB00C01A53000E33DB0833
:101E3000DB008546C01A02AD8546C01ABD6102AD01
:101E4000854602A87861B86906F07CFDE168727980
:101E5000281C521801215200494206F073FDE36824
:101E60007279AE49D2185200786906F06BFDE268CB
:101E70003969F8693D6606F023FD3D69F020800070
:101E800029182269786A4024002506F019FDFC60B3
:101E90003D62796AF86902F0DFFE032001F004FD7B
:101EA0009D4D00202B6838861A6858682C212D24F7
:101EB000CA55E0559A6804242F23DC55984C5123C9
:101EC0003020C35523682E21CA555B690132920028
:101ED000391C9A1802202C3103F076FC012334229D
:101EE000D3552B6836201B7C3525EB55C355002177
:101EF0005A233825398704223721EB552368CA55E0
:101F0000391CDA690220343103F05EFCB479013CFB
:101F1000631C2CD07579013D6A1CF8D073797869FF
:101F20006343EB185B001A5A7E4B9A42F3D0B969AF
:101F300060223960F9657866D219694609CA09C113
:101F4000211C3B68F8692A1CFEF74CFD002803D0D1
:101F50003B6A01339BB23B627379BA696343386968
:101F6000EB18D15CC25C8A18F969CA54D3E7F479DA
:101F7000013C601C30D0B17973797D694B43E31823
:101F80005B005A5B674B9A42F2D0BD6960203D60AE
:101F9000FD65C0197D6984467D666846624628CA2B
:101FA00028C0221C3B68786AFEF71CFD002803D07D
:101FB0003B6A01339BB23B627379B279BD695A4384
:101FC0002B193D69F0202919800009189A5C0B78BB
:101FD0007D6AD3182B55CBE74F4B3C6A1B68DA68F8
:101FE0001B69D3189C4206DAFB68013BDBB2FB603D
:101FF000002B00D04DE700244025FC63EC53B3795F
:102000003C20C35573793D213E223F25D355CB5506
:10201000EB5D7F200125834380212B4349420B4305
:102020003F22D3554020D223391CC3553C310820D0
:10203000FA6903F0C9FB391C44317C648C800D7053
:10204000F3797F224B708B70CB78082093431D432C
:1020500080235B422B43CB707A6AD3230B7103F04E
:10206000B3FBB379013B0FD37279013AFAD371799B
:10207000BD685943FC698918E8186118A4300C78C8
:10208000007820180870F0E7F379013B08D3BC68AA
:102090007D6AE218C8321178EA5C8A18EA54F4E7DB
:1020A000F869796A02F0D8FD391C4C310024FC64CF
:1020B0008C80B3797F200B70737901254B708B7006
:1020C000CB78802283432B4352421343CB70FA696F
:1020D0001D2308200B7103F077FB391C54317C65FC
:1020E0008C800D70F3797F244B708B70CB788026B9
:1020F000A3431D4376421E237A6A2E4308200B71A8
:10210000CE7003F061FB0348796801F013FFBD4610
:102110001BB0F0BD6D1D000034030020FFFF000068
:1021200040000020FEFF000038B50B4C7146201C1B
:10213000754601F0E7FE00F01FFE98300378002B93
:1021400002D1FFF743FE01E001F0AAFE291C201C8A
:1021500001F0F0FE38BDC046C9200000F0B5A5B0C2
:1021600000AF724671467861E1487A6001F0CAFEBC
:10217000E04C23689B683B625B0001333B6501F0E8
:102180009DF92368FF229B68F865D31A984200DD09
:10219000FB65F86D3B6A0024C31AFB6101F096F9F8
:1021A0003A6D694655002B1C0833DB08DB00C81A62
:1021B00085466A466423DC53602001237965FA640E
:1021C00061216222C355CB55D3557C235B426320EA
:1021D000C3556421B123CB553A1C391C201C6031F6
:1021E0005C3203F0F1FA3A6D944206DAF869F96C60
:1021F00063002218CA520134F5E700246C23D1B2DF
:10220000DC530126682069226A23C655D155D95569
:10221000B96402236B20391CC3556831201CFA6C49
:1022200003F0D2FA2B1C796D08338D46DB08DB00F6
:102230006A46D21A9546D21A69469546F9637A6378
:1022400001F0A6FD3861301C00F0CAFF211C2A1CD9
:10225000786B06F077FB211CF86B2A1C06F072FBEA
:10226000386D69468000031C0A33DB08DB00C91A9D
:102270008D46C91A3B69B8619B00684638638D4634
:10228000F962BB60FC640021BA69386B06F05AFB46
:10229000F86AFF21BA6906F055FB00207865954B76
:1022A000786D1B685B6898424BDAF9690026C9B201
:1022B000081CB96301F017F901F0E0F800F086FF9F
:1022C000FC6A3D6B386D0136F217C30F86425341ED
:1022D000DBB2BB62002B06D1B96B8819C0B201F02A
:1022E00002F901F0CBF86B46FB60BB686A460A3323
:1022F000DB08DB00D01A85466A467A6401F050FD9F
:1023000000231A1C39698A4205DA786C9100415819
:1023100001325B18F6E72A68934200D92B602068E7
:10232000834200D22360F968BA6A8D4604340435CA
:10233000002A02D100F04AFFC4E77B6D01337B65C0
:10234000ADE700216C4D79650C1C3A6D944217DAAB
:102350003A6BF96AA300D058CB58C01A854204DD05
:10236000FA69051CA2187A623C647B6D834200DA2C
:10237000786500F01FFFF96B6300C8520134E4E791
:10238000786D00F017FF5B4B1B685B88984206DA9C
:102390007B69012B03D0F86D396A78623964574D37
:1023A00032222C68396C231C98335A6064229A605C
:1023B000022291401A61FA6A00268A580120586167
:1023C0001E60101CDE603A60B96300F0F3FEB034AA
:1023D000BB6B396B206058582C6800F0EBFE2B6803
:1023E00001211A1CC232B8344942206011807A6936
:1023F000C6331E80012A2BD17A6B331C396D8B4278
:1024000009DAF86B5900415A1088884200D21180CD
:1024100001330232F2E73A6C786B53001A5AF96CC6
:10242000131C8A4200D20B1C9BB27021FB64012357
:10243000CB557422BB6C0020D05372217122D3552E
:10244000CB5573220223391CD35570317A6B10E0BF
:10245000786D00F0AFFE391C80B278310222F8644A
:10246000B86C0123CA70FA6B487088708E800B704C
:10247000301C03F0A9F9386C8823D8537A6AFB6BB7
:102480008A214400CA531C19FA6C23888E21CA532E
:102490008C20391C8031C35304234B708B70002572
:1024A00002233A1CCB708832B2230126281C8D806F
:1024B0000E700B7103F088F92388104C2268111CF0
:1024C000FC3149680988994225D206F025F9051C96
:1024D00006F076F803787865002B11D0301C03F0F5
:1024E000B5F923687E6DFC3302365E6024E0C04699
:1024F000FD200000D00E0020FFFFFF7F40000020E5
:10250000002D19D1164B1B68DB7C002B14D1301C1D
:1025100003F090F910E0FF321278002A0CD0114E2F
:10252000306842889A4207D9281C03F08FF9236843
:102530003268FC3302325A60796900290AD17A6A1A
:10254000D0B200F0D0FF0848796801F0F3FCBD4636
:1025500025B0F0BD03F032F8072800D193E6EEE78E
:10256000880D0020D00E0020FD200000F0B5814D28
:102570008DB0724671460190281C039201F0C2FC96
:1025800006F0CAF8061C03F067F8071C03F072F89F
:10259000794C029023681A1CFC321278BA4226D079
:1025A000002F0CD000226B469A8269463B230B75A4
:1025B000101C04A90492022603F006F912E0029A04
:1025C0003D1C002A0FD106A93C23381C3A1C8F80E1
:1025D00006970B7103F0F8F82368FE331E78731E1C
:1025E0009E41F6B201252368FC331F701FE01A1CC0
:1025F000FD32127802998A4218D0002906D1FE33A2
:102600001E78731E9E41F6B23A2301E0392302265A
:10261000002208A9101C8A8008920B7103F0D4F8DC
:102620002368029AFD331A70012500E0002502F0AC
:10263000CDFF071C03F002F8019B032B02D0002FF3
:1026400003D107E00125002F38D0002002F0C6FF9B
:10265000012533E02368FC331F88002F2ED1019918
:10266000012902D0022904D00EE0019803F0E2F81B
:102670000AE0381C03F0DEF82368FF331B78002BD8
:1026800002D0381C03F0E2F803F0CEF82368071CF0
:10269000FE331B78834211D0002802D0112301267B
:1026A00001E01223061C00220AA9101C8A800A924B
:1026B0000B7103F089F82368FE331F7006F02CF8C5
:1026C000B04237D006F028F805F06EFF071C301C2A
:1026D00005F06AFF019006F01FF8301C06F016F8AE
:1026E00005F0DEFF254B1B68187D002801D1012D68
:1026F0000ED0234B3A1C1B689B3203CB019B9B33B0
:1027000003F01EFB002001F0CFF8FEF71BFA04E0F7
:102710002368E433187001F09DF9002003F096F867
:10272000236800211A1CFF321170164AFC3312680C
:1027300002325A6005F0F0FF05F042FF0378002BEB
:1027400008D003F07DF82368FF331A78824201D065
:102750001870012502F0AAFF041C03F069FE03793A
:10276000A34200D004710348039901F0E3FB281C45
:102770000DB0F0BD0D25000040000020880D0020A8
:1027800044000020D00E002038B5054C7546714637
:10279000201C01F0B7FB291C201C01F0CBFB38BD2D
:1027A0002927000038B5054C75467146201C01F0FC
:1027B000A9FB291C201C01F0BDFB38BD45270000EA
:1027C00038B5054C75467146201C01F09BFB291C51
:1027D000201C01F0AFFB38BD6127000038B5054C67
:1027E00075467146201C01F08DFB291C201C01F050
:1027F000A1FB38BD7D270000F0B599B000AF74464D
:1028000071467862D2483C6101F07CFBD14D69464B
:102810002C6865682068FD63684343195A000832D4
:10282000D208D200891A9A008D460A326D46D20823
:102830000733FD62D200FD6BDB08891ADB008D4691
:10284000AD00C91A7D636D468D463D63C91A6D465C
:10285000C14B8D46B8633D64386CB96B6D46FD6104
:102860001D684618AE62E2686862002106F06AF8E8
:102870002269301C002106F065F8E6680021321C50
:10288000684606F05FF82469B86B221C0021684492
:1028900006F058F8FA6BB86B53005B083B62FB6AB2
:1028A000FA6AEB6143005908D3182B62B961B20090
:1028B0000021386B06F046F8BD6BA200AB003D6B03
:1028C0009C08EB18181C0021BB627C6106F03AF8EA
:1028D000FEF76AF8786400F043FA7C6A022C00D1B3
:1028E000A1E0032C00D13BE1012C00D004E27D6B80
:1028F0007B6CAD08BD632F331E78002E46D00020C0
:1029000000F0D2FF934C9549226809685368013B57
:1029100021D39D0014683D64651EFD63F7D33D6CB3
:1029200088694059956878636C431C19486901347B
:10293000A4002558786B0024854200DD2C1AF86B22
:10294000BD6B4543386B5D19AD0028580419386BD1
:102950002C50FC6BE0E71369804A7C6911685A1EB1
:1029600012193D6B9200AA18013B0DD388690438F7
:102970000468486905680020A54200DD281B14682A
:10298000043A20185060EFE7013EB6E7714D2E681B
:102990007468013C16D33568013DFAD33B6A7A6C02
:1029A0006B43E3185B003B64BB6B2F326B431178C6
:1029B000E3183A6B9B00985805F002FF3B6CF96AEC
:1029C0005852E9E77A693B6BB8699500F96A5D1975
:1029D0004300CB1834693B63013C0AD37A6CA300F3
:1029E0002F321178E85805F0EBFE3A6B66009053F1
:1029F000F2E7FFF7D7FE574C492123684A241A799A
:102A000018684825CA55E2555A1D1B69E8554C20DF
:102A1000D27FC3557E234B255B424D21381CEA559E
:102A2000CB55483092E07C6B7B6CA408BC633033A0
:102A30001B787B637C6B474D002C41D0002000F05D
:102A400033FF2A68454B11681E684B1E3B6424D334
:102A50003C6CB86B536860435D1EAC4660443D6B94
:102A600084002C19FC63013B15D390680124484372
:102A700084469C44F86BA444006865467469AD00C4
:102A8000386028593C688446A444F86B6546056064
:102A90000438F863E7E7396CD7E7304B12691968F7
:102AA0009300043B013A07D3BC6ACD69E458E85867
:102AB0002018BC6AE050F4E77D6B013D7D63B9E707
:102AC0002E687468013C16D33568013DFAD33B6A21
:102AD0007A6C6B43E3185B003B64BB6B30326B4337
:102AE0001178E3183A6B9B00985805F069FE3B6C2F
:102AF000F96A5852E9E7BA69FB6A550034695D1909
:102B0000013C0AD37A6CA30030321178BA6A6600AD
:102B1000D05805F055FEA853F2E7FFF751FE0D4CD3
:102B20005121236852241A7918685025CA55E25554
:102B30005A1D1B69E8555420D27FC3557E23532567
:102B40005B425521381CEA55CB555030F96AD1E02B
:102B5000992700003403002044000020400000209A
:102B60007C6B7B6CA4087C6231331B78FB62FD6A52
:102B7000684C002D00D1A4E0002000F095FE664ACC
:102B8000206815684368AC46013B50D30268511E6B
:102B9000FAD38468654662439A186D6901329200DF
:102BA00052593D6B7A637A6A4A439A189200545993
:102BB0007A6BFF25A41AFF2C02DCE543ED172540B4
:102BC0007A6CBD6133321278FD693A62EE18FA6BA5
:102BD0003D6A4A43AC420DDDB45C0134E4B2B45406
:102BE0007E6C64B232363678B44217DB3D6CEC183A
:102BF000BD6912E07C6CB65632342478A6420DDAF8
:102C00003D6CEC18A65CBD69B54200DA351CA554D4
:102C1000FC690025E218FC6B4C4315557A6A7C6B05
:102C20004A433D6B9A18920054510A1CAFE73A4A46
:102C3000036916685A1E9200013B3ED3F569BC6ACF
:102C4000AD58A4583D62601BFF2802DDFF257D635F
:102C500003E0C443E41704407C63796CFC693331BE
:102C60000978BD6B8C46611960450EDDC85C01308A
:102C7000C0B2C854796C40B232310978884217DB4F
:102C80003C6C61197D6BCD5412E0C8568446786C5B
:102C90003230007884450BDA3C6CBD6B6019C45C43
:102CA000A4467C6B644500DA6446C4540020C854D2
:102CB000386ABD6AA850043ABEE7FC6A013CFC626F
:102CC00055E7FFF78BFD2368582019681A795924B6
:102CD0005A25C155E255EA555A1D1B69D27F5C2120
:102CE0005B20CB557F23C2555B425D22381C396C7B
:102CF000D355583002F00EFB084B00221B680848E1
:102D00005A629A62DA611A62396901F013F9BD46B2
:102D100019B0F0BD34030020400000204400002022
:102D200099270000014B18607047C04658010020E9
:102D3000014B18687047C04658010020014B586885
:102D40007047C04658010020014B98687047C04644
:102D500058010020014B18607047C046DC0E00206F
:102D6000014B18687047C046DC0E0020014B18600C
:102D70007047C046D80E0020014B18687047C04607
:102D8000D80E0020014B18607047C046D40E0020BA
:102D9000014B18687047C046D40E0020014B1868DC
:102DA0007047C0466401002010B50D4B00201B7811
:102DB000AA2B12D10B4B1C780B4B64B218780B4B1F
:102DC00040B219780A4B20181A780A4B49B21B787E
:102DD00040188018C01A43425841C0B210BDC046C6
:102DE0005000020051000200520002005300020095
:102DF00054000200550002008023DB0200221880EC
:102E000059809A80C046024B188880B27047C046ED
:102E10000600040013B5094A042413780021DBB22C
:102E20001C4301910198F421FF31884205DC1370A5
:102E3000C046147001990131F3E713BD0D00005035
:102E400082B00022019201AB55221A7039225242FF
:102E50009A700122DA70019AA023DB059A6102B010
:102E60007047A023DB059869C001C00F704701229D
:102E7000A023DB0510400206024998690840104370
:102E800098617047FFFFFFFE82B00022019201228D
:102E90000A40891801303F2201AB1040C9B21870B6
:102EA000481C023102408900D9705A70019AA0234F
:102EB000DB05DA61196A024A0A401A6202B07047F9
:102EC000FFCFFFFF0002064B000A013800225860C6
:102ED0009A6005221A60C0461A68D103FCD5704773
:102EE00010E000E0F0B5514F85B03B6894339A781C
:102EF00019681D78DE780F231407994312092D07EE
:102F000001922D0F0B1C80222B4352001343484A81
:102F10000395484D1340484A2B4048491340240F1D
:102F20000B400199220413430A0545493607360F21
:102F30000B40009613433206424E02943340134333
:102F4000414AA024E4051340E360FFF763FF3B68B8
:102F5000E26895331B781540DB069B0FDB021D43AF
:102F6000E560E26880239B001343E360E26880230E
:102F70009B011343E360029C039DFFF715FF0028AC
:102F800013D0324F882039781E34C9B205F018FCAE
:102F900039784443C9B2882005F012FC0F35454307
:102FA0001E3C00230F3D9C4203DB231E0F2B00DD44
:102FB0000F230F22954200DD151CA024E4051F49B4
:102FC0001A40E36812040B401343E360EB43E268EA
:102FD000DB171D400F239A431D401543E560E3684E
:102FE000F022934380221343E360E368144A1848B5
:102FF0001340E360E3683340E360FFF763FFE26898
:1030000080235B051343E3600099E2680B061640DA
:103010001E43E6600F48FFF755FF019B08491A055C
:10302000E3680B401343E36005B0F0BDD80E002009
:10303000FFF9FFFFFFE7FFFFFFDFFFFFFFFFF0FFED
:10304000FFFF0FFFFFFFFFF0FFFFFFEF5400020045
:10305000FF0F0000FF6F0000064A074B12680120B7
:10306000E832126819789040021C0A43D2B21A70F2
:103070007047C04664010020290000500549064BF6
:1030800009681A78E83109680120884082431A707B
:103090007047C0466401002029000050044B187896
:1030A000044B1B68E8331B68184101231840704724
:1030B0002900005064010020A0230122DB055A7082
:1030C0007047044B82B0019001AA188092789A70E0
:1030D00002B070472400005007B500F043FF064BD4
:1030E000019001AA188092789A70044B00221A70FD
:1030F000034B0122DA7707BD2400005000000020B6
:1031000008000050034B00221A70034B0122DA77AB
:103110007047C046000000200800005072B6084BFF
:103120001B5C002B03D1C04662B630BFF6E762B627
:10313000A023DB059968034A0A409A607047C0469D
:1031400000000020FFFFF9FF72B6074B1B5C002B4D
:1031500002D1C04662B6F7E762B6A023DB059968E4
:10316000024A0A409A60704700000020FFFFF9FF02
:10317000A023DB055A680121120E58689143034AC7
:10318000090602400A435A607047C046FFFFFFFE2F
:1031900008B5074B1B681A1C9C3212789D331B78AC
:1031A000520001325043994005F00AFB08BDC04669
:1031B000D80E002008B5044B1B689F3319784900CE
:1031C0000131FFF7E5FF08BDD80E002008B5A023A8
:1031D0000120DB055870FFF7A1FFFFF7C9FF08BD0D
:1031E000F7B5A026041CF605042807D1554B1B682B
:1031F0001A1CA432A83317681B6824E0524B1B68C2
:103200001A1C8C331B68883217687361FDF7DEFB6C
:10321000FF300378002B17D005F07EFA05F0D0F9C7
:1032200001797F2211408904019171690B1C474982
:103230000B400199194371614179444B0A4071690E
:1032400092040B4013437361A023DB051F611E69C9
:103250001F231E40FFF7A8FD00280AD03C4B882002
:1032600019780436C9B205F0ABFA46430023043E90
:1032700003D4331E1F2B00DD1F23A022D205108A8A
:103280001F210B40884303431382022C16D007DC16
:10329000002C13D0012C2DD12B4B1D689E3529E01D
:1032A000042C07D023DB052C24D1264B00241D68D9
:1032B000AF351FE0234B1D68AC351BE0FDF786FBE7
:1032C000031CE4331B78002B03D01E4B1D685D35B7
:1032D00010E0FF300378002B05D005F01DFA05F053
:1032E0006FF9851D06E0184B1D689B3502E0164BF3
:1032F0001D68A135A023DB05596928783F221040BD
:1033000091430143596168781F215D690840114963
:10331000C0022940014359610F49640009680C1932
:10332000211C773108785968104091430143596056
:103330007834217858680A401102084A02400A434A
:103340005A60F7BDDC0E0020D80E0020FFFF03FE00
:1033500054000200FF07FFFF64010020FFC0FFFFD1
:10336000294BF0B51A68294B85B01B689E331B7832
:103370005B069B0E0193931DD97F00238D00551989
:10338000581E5B18002B27D053181B1826331B78A8
:103390008024D3185E78A023DB055F68E4033C43F8
:1033A0005C60019CB606240400945F68B60EBC46BF
:1033B000174F64462740009C27435F60C046243671
:1033C00076008400F65A2C19983426605E68114CF9
:1033D00034405C60031CD3E76F460293BB8101233A
:1033E0003B72931DDB7F7F217B72BB72FB7A98322D
:1033F0008B4304210B43FB720F20B02302A93B73C4
:1034000002F0E2F905B0F0BD64010020D80E002002
:10341000FFFFC0FFFFFFBFFFF0B585B0FFF7A0FFC4
:10342000154B00251E68B31DDC7F631C9B005B42AF
:103430000093A300F3180193009B043D9D4208D024
:10344000019A0121571998373868FFF7A1FE3860B3
:10345000F2E76A4600239381012313720423D37297
:10346000B023547294721373321C98320F2002A945
:1034700002F0AAF905B0F0BD64010020044B00225F
:103480005A70A023DB055A7001221A707047C0469B
:1034900000000020A023DB059968064A0A4080212D
:1034A00089020A439A60044A0021917001229A70AD
:1034B0007047C046FFFFF9FF00000020024B1B6869
:1034C000903318687047C04664010020024B1B68A7
:1034D000903318607047C04664010020A023DB05CC
:1034E0009868C0B2704730B5A023DB059B68DBB29B
:1034F00083420ED001DA013300E0013BA022D20565
:103500009568FF211C1C8D430C40291C21439160B0
:10351000EEE730BDA023DB059968802252020A4302
:103520009A609968094A0A409A609A6812011209D9
:103530009A60D968064A0A40DA60D968054A0A40A2
:10354000DA60D968044A0A40DA607047FFFFFFF08A
:10355000FFFEFFFFFFDFFFFFFFFFFFEF1B4B10B57D
:103560001A680121131C92331878A023DB059C688C
:1035700008401749000421400143996093321078B4
:103580009C681449000700092140014399601178A3
:103590009A6809091201090712090A439A60D96851
:1035A000802252000A43DA60D968802292010A43DD
:1035B000DA60D968802252050A43FA20DA60800076
:1035C00000F0F4FCFFF77EFC10BDC046D80E0020D2
:1035D000FFFFFEFFFFFFFFF008B50020FFF79EFD95
:1035E00008BD034B1B689C331878400001307047BE
:1035F000D80E0020024B1B689D3318787047C046D8
:10360000D80E002000487047001000500048704756
:10361000002000500048704700400050074B012038
:103620001B685B799A1C0340D318054A12686632FE
:1036300010785843034B8000C0187047DC0E002000
:103640006401002004400050F7B51B4B051C1C68AA
:10365000A3795F1E15D36279013A10D36079561CA5
:10366000811C019101210840019908185843311823
:103670001248890009180868E8400860ECE73B1C1C
:10368000E7E7FFF7CBFFA37A002201339C466346AE
:10369000013B9C460FD3617A960001918619002365
:1036A0000199994205D09F00F1590133E940F15148
:1036B000F6E75218EBE7F7BDDC0E002000400050A3
:1036C000074B01201B685B799A1C0340D318054AFD
:1036D0001268723210785843034B8000C01870474C
:1036E000DC0E00206401002004400050094B012141
:1036F0001A685379D0799A1C0B40D318064A0130C6
:1037000012686A3212785343C018044B8000C01804
:103710007047C046DC0E00206401002000400050CD
:10372000F7B5434B1D682A7853B2042B1DD1414B8A
:1037300019680B1CAE331F7802235E1E77D34A79BB
:10374000013A10D34C79551CA01C01900120044073
:10375000019804195C432819374C8000001904684B
:10376000FC400460ECE7331CE7E7002A45D0022B5D
:1037700021D1FDF72BF9E43003782E4C002B02D039
:1037800023685F3302E02D4B1B689D331878FFF7E9
:103790005BFF2568EC79002C2FD0FFF7A7FF061CF4
:1037A000013C2AD3697A201C05F060F889008A5907
:1037B000A300F250F4E7032B03D1204B1B68A33383
:1037C00018E0012B11D1FFF77BFF1A4B061C1B6879
:1037D0005C79013C11D32B193A331B789B00985923
:1037E000FFF7E8FCA300F050F3E7052B05D1114BE0
:1037F0001B68B1331878FFF727FF104B1B689A330B
:103800001B78002B13D00B4B1A685379013B0ED356
:10381000517901258C1C294061189479581C614309
:10382000401805498000401800210160EEE7F7BD0F
:1038300064010020DC0E002000400050D80E002063
:1038400008B5A0230120DB055870FFF767FCFFF7E0
:103850008FFCFFF765FF08BD70B5041C104E114DBD
:1038600011D10120FFF7BCFC336801221A70A0239C
:10387000DB056C705C701A70FFF7E2FFFFF778FCF5
:10388000FFF7CAFD0224201CFFF7AAFC33680022C0
:103890001C70A023DB056A705A7001221A7070BD7B
:1038A000640100200000002008B5FFF7D5FFFFF7F6
:1038B000C7FF08BD08B5A023DB05011C58683F22DF
:1038C00011409043084358605968586811400131CD
:1038D0000A401102064A02400A4306495A60002281
:1038E0004A705A7001221A70FFF7AAFF08BDC0463D
:1038F000FFC0FFFF0000002010B5A023DB051C6AFD
:103900000005064A000D010422400A431A621A6AA1
:10391000120B12031043186210BDC046FFFF00F0E7
:1039200073B5174BA0221B68D205903391681968B4
:1039300091601C78FFF738FA124D002812D0124B14
:10394000124A1B7812782E6852B25BB20092201C89
:103950001021D12201F0F2FF2B68943630609433AD
:103960001B68E418002C01DA002402E0FF2C00DDC3
:10397000FF242B68E0B290331C60FFF7B4FD73BDE9
:10398000D80E002064010020530002005200020003
:1039900008B5FFF7C5FFFFF7A5FAFFF751FA234B6C
:1039A000C022920098582249014099509958FF200E
:1039B000814340200143995098581E49014080207E
:1039C000000401439950985880210002000A09061A
:1039D00001439950012102221A6008201960042134
:1039E00019601860144B00205860144B186901438B
:1039F0001961134B1B68197A124B1B68E8330029B5
:103A000000D1032210491A6000230B700F49A02235
:103A10000B700F49D2050B709363D36B9B0E9B0603
:103A2000D36362B600F09CFE08BDC04600E100E032
:103A3000FF00FFFFFFFF00FFFCE100E000ED00E002
:103A4000DC0E0020640100202900005028000050F6
:103A50002A00005008B5002801D0012801D100F04B
:103A60007FFEFFF75DFFFFF73DFAFFF7E9F908BDBD
:103A7000F0B5214B13211B680224DA7A0023133A94
:103A8000D2B291425B41E41AA023DB0558693F2280
:103A9000596810408022D2030A43A3B05A60411EE5
:103AA000A023C9B2DB0502AAFF2910D05F683F2618
:103AB000124D0E4036043D4035435D60C046251C26
:103AC00024356D005D5B4B00D5520139E8E75C6839
:103AD0000B4921405960694600238B8001230B70FC
:103AE000022348708870CB700320B3230B7101F060
:103AF0006BFE23B0F0BDC046DC0E0020FFFFC0FF10
:103B0000FFFFBFFFF7B5041C02F080FC124B1A68E0
:103B100000235068411C0191019D16689D420CDBF9
:103B2000976801367E4399008C469E1900216546B0
:103B3000B600615101333151EEE701239E420ADBA9
:103B4000956800215D43AF002D180135AD00395156
:103B500001332951F2E7F7BD34030020044B054936
:103B600000221A6059609A6005221A607047C046A8
:103B700010E000E0FFFFFF0010B5A023DB059C680C
:103B800099680C4BC9B21B68E40394331B68E40FBB
:103B9000591AFF31E62359430134074BA040C91895
:103BA000041C064804F00CFEC1B2201C04F008FE00
:103BB00010BDC046640100205C5D000040420F0063
:103BC000014B00221A60704710E000E030B50E4D46
:103BD0000E48AB6885B0C01A0193FFF7CDFF02A96C
:103BE000012300240B704B708B7004230190CB7069
:103BF000201C6F2301AA8C800B7101F0E5FD019858
:103C00002C6005B030BDC04610E000E0FFFFFF00B3
:103C100010B5041CFFF7A2FF201CFFF71DFEA02318
:103C2000DB0501205870FFF78FFAFFF7A1FAFFF7C5
:103C300077FDFFF7CBFF10BD37B5051C0424291C09
:103C4000221C684604F03CFE2919221C01A804F03D
:103C500037FE009980230ABADB05DA6001990ABAB7
:103C60001A6137BD40BA80B2704700BA704700236E
:103C7000114A12499A188A4204D21149C958043388
:103C80001160F5E70F4B104A191D043B934203D214
:103C900000221A600B1CF6E70C4B0D4A1360EFF381
:103CA00008820433191D043B9A4203D9094818605D
:103CB0000B1CF7E77047C046400000204803002077
:103CC000A08A00004C030020880D0020180F00205F
:103CD000F40E0020CDCDCDCDF0B5294D89B02948C9
:103CE0002C6800F063F9FFF7EDF80026264FBC4280
:103CF00022D280373B1B2027832B00DC9F1002A998
:103D0000FAB2012300204A708A70BF10221C0B7087
:103D1000CB70888001F058FD231C3A1C013A08D36F
:103D2000002E04D119491868884200D01E1C0433A3
:103D3000F4E7BF00E419D9E72B6804A9F31A0025BA
:103D4000019304230124CB70281CA72301AA8D8092
:103D50000C704C708C700B71843701F035FD06A926
:103D60000420C870A823BE1B281C01AA8D800196C0
:103D70000C704C708C700B7101F026FD09B0F0BD19
:103D8000F40E0020801A060080370020CDCDCDCD66
:103D9000024B1B680633D87F7047C0466401002081
:103DA00070B5051CFFF78CFC0A4B1C68A31DDB7F5C
:103DB0009A00AD180022511ED218002A09D0E2182C
:103DC000521826321278920016588A00AE500A1CF9
:103DD000F1E770BD6401002030B50B4B1B689A1DE4
:103DE000D27F94001C195300C01800230133D11A4C
:103DF000013107D09D00651B983559002D68494257
:103E00004552F3E730BDC04664010020A02382B0D4
:103E100080B2DB05D88502B07047A023DB05D88DC2
:103E200082B002B070470722A023DB051040420198
:103E3000188AE0218843104318827047F8B50C1C9B
:103E4000051CFEF7A5FF144908688379013B11D3CF
:103E50000E687279013AF9D30E6870790F4E5843A3
:103E600036688018F6182818A03607783679BE19F3
:103E70000670EFE70B68DB79013B08D3074AE15C8A
:103E80001268D218C83212788A18E254F4E7281C53
:103E9000211C00F0E1FEF8BDDC0E0020D80E002051
:103EA000134BF7B51C686946E26800AF131C0E336C
:103EB000DB08DB00C91A23698D460E33DB08DB0003
:103EC000C91A0C4B6D461E688D467960281C311C42
:103ED00004F0F6FCF0239B00F1182269786804F0E6
:103EE000EFFC281C7968FFF7A9FFBD46F7BDC04667
:103EF00034030020D40E0020A023DB05186900063F
:103F0000400F704770B5051CFEF71EFF0468061CC5
:103F1000013C08D37268E300D3181A68AA42F7D1AB
:103F20005B689847F4E7024B013D1D6070BDC046D9
:103F3000E00E002070B5051CFEF706FF8468061C25
:103F4000013C08D3F268E300D3181A68AA42F7D1FB
:103F50005B689847F4E7024B013D1D6070BDC046A9
:103F6000E00E002038B5A023DB0599689D680C4B56
:103F7000041C1B680B4894331B68ED03C91AC94322
:103F8000E623C9B25943084BED0FC91804F018FCD9
:103F9000044B01355843211C284104F011FC38BD65
:103FA0006401002040420F005C5D000038B5A02392
:103FB000DB0599689C680A4B051C1B68094894330B
:103FC0001B68E403C91AC943E623C9B25943064B27
:103FD000E40FC91804F0F4FB68430134204138BDF4
:103FE0006401002040420F005C5D0000002801D009
:103FF000133907E0122902DD262902DD12394910A2
:1040000000E000E0081C7047F0B5AA4B00261D68D0
:10401000041CEB7A1322133BDBB2301C9A42704132
:10402000B1B0C7B2059702273F1A311C142209A864
:1040300004F088FCA04B20681B68882201936B3336
:104040001870019B61686E3319700EA8311C04F062
:1040500079FC311C142209A804F074FC974B0EA8BB
:104060001968442204F02CFC022F04D11FA80EA9C9
:10407000442204F025FC00272E1C0497771B03978D
:104080006B7901369F423EDAB77A0598391CFFF703
:10409000ADFF09A9095C0EAB0291029A442151437C
:1040A00009185918721B0A717911069109A90A5C3D
:1040B00011214A43069952181F210F40063201214F
:1040C0009200B9400F1CD1580F43D7500399019F5C
:1040D0003F237A185178071C99438C4602991F4058
:1040E00089010691614603970F431F40069B1F43BA
:1040F000029B5770013309AFDBB23B54049F9F42D0
:10410000BCDA0493BAE7019B049D6D3300261D7051
:104110000296684B029E19688F79BE4200DBBEE0B2
:10412000029D49190B1C2833DA79644B1E68331C35
:104130009A331B78B446039303980023984204D023
:10414000781E854201DA2931CB790120011C91408A
:104150000591111C2039051C8D40A9011D1C203D15
:10416000061CA840049D9E4089090696079001956B
:10417000019D002D38D0019E4425013E75430196D6
:1041800066680EA82E544519281C002620302E6281
:104190004668B60EB606009646601F2A02DC0598F1
:1041A000286204E08D01009EAD092E434660039D08
:1041B000002DDDD0029E781E8642D9DA019E44256C
:1041C00075430EA845191F2B04DC2E6A0698304350
:1041D0002862CDE7686A079E0643B601800EB609DD
:1041E000800630436862C3E7029E6046331C457810
:1041F0006344C833AD065F79AD0EFEF7D5FD0028E8
:1042000013D02F4E882031780137C9B204F0D8FA84
:1042100031784743C9B2882004F0D2FA02354543C9
:10422000013F023D019E791C03D03E1E1F2E00DD82
:104230001F263F2D01DD3F2526E0EB43DB171D4008
:1042400022E00199442251430EAB59188F781F2365
:104250009F43301C18403B1C03434F788B703F2317
:10426000281C9F4318403B1C034320684B703B288D
:104270001CDC5043134FC01904F022FB2368019F3C
:104280000133013723600197019F04988742D8DBEF
:10429000029D6368013501330295636039E7064B7F
:1042A00022681B6801206C331A7000E0002031B0D6
:1042B000F0BDC046DC0E002064010020D80E0020B6
:1042C000540002000080005030B585B0FEF760FD5C
:1042D000064B01A81B68021C843332CB32C2FFF7A5
:1042E00093FEFFF7DDFD05B030BDC0466401002040
:1042F000F0B5564B9FB01B6800270493DB7A13225E
:10430000133BDBB2391C9A427941CBB2051C391CF4
:10431000142208A8079304F015FB4D4B2A681E6869
:104320000DAC331C6F331A706968023359701F70FB
:10433000391C4422201C04F005FB391C142208A857
:1043400004F000FB434B201C1B684422191C0693FD
:1043500004F0B6FAB31DDF77049A53799F4233DA3B
:10436000049A0798D319DB7A191C0593FFF73EFED0
:1043700008AB1B5C9C46002B0BD1B31DDA7F511C94
:10438000B218D9770732FBB20DA9D37701330A18D7
:1043900013710DAB19180979F2193A3201391170FC
:1043A000059901374A110632920003921F220A40F2
:1043B00001219140039AD2581143039AD150634688
:1043C000013308A90B54C7E7069B5E78B606B60E04
:1043D000FEF7EAFC00280AD01F4B88201978023625
:1043E000C9B204F0EDF946430023023E03D4331E64
:1043F0003F2B00DD3F23A2781F218A436178A27002
:104400003F2291431340626A0B4369686370930EC5
:1044100021709B06002119A814222162636204F016
:1044200091FA2868442250430C4B211CC01804F018
:1044300047FA6A682B6801326A60054A01331268DC
:10444000012070322B6013701FB0F0BDDC0E002015
:1044500064010020D80E00205400020000800050AB
:10446000F0B5BA4BB1B01B680024039353331B78EB
:10447000071C133BDBB21322201C9A426041C5B2D9
:10448000059502252D1A211C142209A804F05AFAB8
:10449000AF4B3E681B68211C049363331E70049B62
:1044A00078686633187088220EA804F04BFA211C35
:1044B000142209A804F046FAA64B0EA81968442253
:1044C000443104F0FDF9022D04D11FA80EA94422A5
:1044D00004F0F6F90025039C0695039E039DA61B98
:1044E00007966B7A01349E4237DA231C52331D78CB
:1044F0000598291CFFF77AFD09AA115C6E118C46FC
:104500000296112166467143029E0EAB89191F2641
:104510003540063101268900AE40351CCE58354362
:10452000CD50079E049D3F23A919051C1D405831FD
:1045300066460295B6018D790196029E9D432E43F3
:104540001E40019B069D1E4363460133DBB28E7104
:1045500013549D42C1DA0693BFE7069E049BF6B250
:10456000653307961E700024784B04941B68049DE5
:104570009A7A954200DB9BE0049D069C5A195832BA
:1045800011780122081C2038161C82408E409001B0
:10459000B44680090394039C002C1BD0039D442245
:1045A000013D6A437E680EAC1655A2180395141C93
:1045B0001F2905DC566A65461562B20E920607E0B1
:1045C00000251562666A8201B50E9209AD062A437E
:1045D0006262E0E75E4A1168221C587A824210DA71
:1045E0008818583084794425A006A4096C43BE6815
:1045F000800E20180EAD0136281806710132BE60FB
:10460000EBE7544B1B681A1C4632453316781C786E
:10461000F606A406F60EA40EFEF7C6FB002813D07D
:104620004D4D882029780136C9B204F0C9F829789F
:104630004643C9B2882004F0C3F802344443013E23
:10464000023C0025701C03D0351E1F2D00DD1F25E8
:104650003F2C01DD3F2402E0E343DB171C40039EB7
:104660000698864221DA0399442251430EAB591829
:104670008E781F239E43281C1840331C03434E781A
:104680008B703F239E43201C1840331C0343386823
:10469000324E50434B70801904F012F93B68039E70
:1046A000013301363B600396D9E7049C01345BE794
:1046B000274A3E681468079D221C643216703868C9
:1046C000D07079680532517015700022597A8A428B
:1046D00010DAA1185831897944208D068909484398
:1046E000AD0EB96840190EAE0131301801710132BA
:1046F000B960EBE71AAD03950025069EB5421EDAB8
:1047000044236B430EA8C618706A0021820E9206DD
:10471000316272620398142204F014F9386844215B
:1047200048430E4A311C8018442204F0C9F83B6803
:10473000039E013344363B6001350396DDE73B6859
:1047400068340120237031B0F0BDC046DC0E00207B
:1047500064010020D80E00205400020000800050A8
:10476000F0B56B4B00241F681322FB7A211C133B0E
:10477000DBB28DB09A4261410226CBB20C22761A8E
:1047800004A8211C019304F0DDF8142207A8211CC1
:1047900004F0D8F87A793D1C02920299EB1B8B4207
:1047A00013DAE97A0198FFF721FC132801D90020D8
:1047B000ACE007AA135C0135B342F8DA0133DBB28F
:1047C00013549C42E9DA1C1CE7E701220492B879F1
:1047D000002181420ADA131C9D1AA54203DA3B2B01
:1047E000E5DC0133F8E701311A1CF2E70492FB79AA
:1047F000002B11D1002304A80493FFF779FD04A82E
:10480000FFF702FC424B434D1B68DE79002E3ED081
:1048100004A8FFF725FE50E03B1C53331B7800250E
:10482000133BDBB21322291C9A426941CAB202929D
:104830000222521A019207A8291C142204F082F8BD
:104840007B7A3E1C0393039AF31B934214DA331CC6
:10485000533319780298FFF7C9FB1328A7D807AA82
:10486000135C019901368B42A1DA0133DBB2135498
:104870009D42E8DA1D1CE6E7EB43DB171D40BB7ADF
:104880005D43049B6D00ED183B2DB3DD8FE7286879
:10489000311C0422633004F055F82868311C0422CE
:1048A000673004F04FF82B680499CAB2191C6331C1
:1048B00068330A704A700A711A702D6864002B1CE4
:1048C0006F331A78073BDA73291C1B7878310B7029
:1048D0004A70083909782A1C7A3211700F3A167812
:1048E000291C7B31281C0E707D305374022203F08A
:1048F000E7FF2F1C2B1C7F33083734195C701E70A8
:104900006E35FE672A7801339A6001200DB0F0BD44
:10491000DC0E0020640100200D4B10B51C680D4B0F
:1049200001681B681A1C673211704168D170191C2C
:10493000693100220A70617A8A4204DA81680132A0
:1049400001318160F7E70268683301201A7010BDF9
:10495000DC0E002064010020A14BF0B51B68B3B051
:104960001A1C0832D26F002406929E4A1321156841
:10497000201CEA7A069F133AD2B2914260411A1C77
:10498000C6B27332177076330296012202261A706D
:10499000361A211C882210A803F0D4FF211C1422EF
:1049A0000BA803F0CFFF291C603110A8442203F0AC
:1049B00087FF022E04D121A810A9442203F080FF12
:1049C0006E790027059603973C1C059FBC422ADAA6
:1049D0002B19DE7A0298311CFFF708FB0BAB195C30
:1049E00010AA8C46674644217943091851180134AE
:1049F0000C711F5C7111049111214F4304997F18B0
:104A0000B91D1F273E4001278900B7403E1C8F5823
:104A10003E438E5062460132039ED2B21A549642F1
:104A2000D3DA0392D1E7069D00240595039F0297F0
:104A3000029F002F16D0029E4422013E724310AF07
:104A4000BA180296D66A0021556A11629162B10EB7
:104A50008906D378A80ED162202180060B435062CC
:104A6000D370E5E75F4B221C186881798446079173
:104A7000079D131BAB4248DA65462B1B9B182F334F
:104A8000187801231F1C874051100497071C1940F8
:104A9000203FE6B20991BB40039908961F1C0029EC
:104AA00031D0013944234B4310AE651C9D55089D00
:104AB000F318099E6DB20195B54210D01F2804DC91
:104AC0001E6A049D35431D62E9E75D6A2E1C3E4364
:104AD000B601AD0EB609AD0635435D62DFE71F28AE
:104AE00004DC9E6A049D35439D62D8E71D1CDB6A89
:104AF0003B439B019B090193EB6A9E0E019BB6060B
:104B00003343EB62CBE70132B2E7374B1B685B19EB
:104B1000C8335F79634661331D78AD06AD0EFEF78D
:104B200043F9002813D0314E882031780137C9B2BB
:104B300003F046FE31784743C9B2882003F040FEB7
:104B400002354543013F023D0026781C03D03E1E3E
:104B50001F2E00DD1F263F2D01DD3F2502E0EB4328
:104B6000DB171D40059944274F43214ABF18029A7D
:104B7000039B9A4220DA02994422514310AB591800
:104B8000301C1F231840049088789843031C049815
:104B900003438B70281C3F231840049048789843A7
:104BA000031C049803434B70381C03F089FE0299E0
:104BB000443701310291DAE7DB43039D059EDB17A1
:104BC0002B40F61801340596022C00D02EE7044A3B
:104BD000069D1268E918CB187432137033B0F0BD1B
:104BE00064010020DC0E0020D80E002054000200DA
:104BF00000800050F8B5164D061C2B680024633366
:104C00001F782B68E1191A1C643212780134914222
:104C100009DAE319442058430E4B311CC018142202
:104C200003F090FEEDE76B331F7800242B68E21948
:104C30006C331B7801349A4209DAE3194420584353
:104C4000044B311CC018142203F07CFEEEE7F8BDC3
:104C500064010020EC7F0050F0B5374B85B01B6835
:104C600002901A1C039163321578344A00201168AF
:104C7000041C8A7A94422BDA021C4F7A161ABE421E
:104C80001FDA9E195836B679B7090096EF194426EF
:104C90007E432B4FB4463E1C009F66440196BE06E1
:104CA000039FB60EB446BE5C3F2E00DD3F26F6B233
:104CB0000096019E0132371C6744009E30373E70DB
:104CC000DBE7181C6530007801342D18101CD0E784
:104CD0001A1C6B32147800208A79904229DA00225B
:104CE0004D790195AA421EDA9E187678B709E71920
:104CF000039744273D1C039FB6067D43AC46104DE9
:104D0000B60E2F1C019D674445430397029FBF18B1
:104D10007D5D3F2D00DD3F25039FEDB2BE1930368E
:104D200035700132DCE71A1C6D3212780130A4189C
:104D3000D2E705B0F0BDC04664010020DC0E0020C3
:104D40000080005044235843044B111CC018C27803
:104D50000F2319409A430A43C270704700800050E5
:104D600038B5051C141CFEF71FF8002808D00A4BA4
:104D7000882019780234C9B203F022FD4443023C72
:104D800044206843054A3F23801802781C409A4318
:104D90001443047038BDC046540002000180005026
:104DA00010B5041CFEF700F8002808D0084B882036
:104DB00019780434C9B203F003FD4443043CA02332
:104DC000DB05198A1F22144091430C431C8210BD3D
:104DD0005400020030B50F4B1B689979884203DA02
:104DE0001B182833D87914E05A798D18411AA84233
:104DF00002DA5B18D87A0CE09C7A8A1A2D19A8423C
:104E000003DA9B185833187803E0141B1B1950332E
:104E1000D87830BDDC0E0020F0B5D44DA024E405D8
:104E2000A3682B6897B059799A7900AF8A18597A94
:104E30009B7A5218D3181A1C5A437B62D31DDB0885
:104E4000DB006846C01A85466B46FF217B6103F094
:104E500079FDFF20FFF7AAF8C54B69461B1A786A4F
:104E6000BB60C000031C0E33DB08DB003861C91ACD
:104E7000786A8D466B4680003B62031C0A33DB0870
:104E8000DB00C91A002200233A637B63F860F961F2
:104E9000E268B84B8D461340E3602B685C79B34BF6
:104EA000013C1B68621C14D01B19381CD97A503085
:104EB000202203F0E7FC3D6D58207A6DAB00C0194D
:104EC000C3180121283B91400A1C19680A431A6043
:104ED000E5E79C79A54B013C1B68621C15D01B19AA
:104EE0002833381CD9795030202203F0CBFC3D6D9B
:104EF00058207A6DAB00C019C3180121283B91409E
:104F00000A1C19680A431A60E4E75C7A974B013C73
:104F10001B68621C15D01B195033381CD9785030CF
:104F2000202203F0AFFC3D6D58207A6DAB00C01914
:104F3000C3180121283B91400A1C19680A431A60D2
:104F4000E4E79C7A013C621C17D0884B381C1B6834
:104F500050301B1958331978202203F093FC3D6D13
:104F600058207A6DAB00C019C3180121283B91402D
:104F70000A1C19680A431A60E4E77D69BD610025CF
:104F8000FD62FD6A786A854200DBDEE000213A6955
:104F9000386A03F0D7FCA0240021FA68F86903F00E
:104FA000D1FCE40500232363636B9B0E9B066363C4
:104FB0003D6BA563786BB862E36B86019B0EB60907
:104FC0009B063343E3636420FEF7F0FFFDF77AFFAF
:104FD000F86AFFF7FFFEC1B2381C4830202203F008
:104FE00051FC396B7A6BFB6CB963FA63BA6C0121C3
:104FF000994058200B1CC01991004118081C2038FA
:1050000002689A430260B86C131C00280AD0283941
:105010000A6853409A01636B92099B0E9B061343E7
:10502000636301E06B402363A024E405A563E36BA5
:105030000A209B0E9B061E43E663FEF7B7FFFDF7B3
:1050400041FFE26B8023DB041343E363B96BBA6A6D
:105050004D40A563FB6B5A40E36B92019B0E920996
:105060009B061343E363FEF779FDFD6BBE6B3B6A62
:10507000AC460124404ABD689168A94214DB3F4A0E
:1050800065461068526830402A405D68954203D3F7
:10509000F0D11D688542EDD2FD69DA60A20098600A
:1050A000A95001340833E5E7FEF78AFDA023DB05AC
:1050B000D96B334A0A40DA63012C3ED0651E386A48
:1050C000ED004519013C002C37D02B1C083B1A6819
:1050D00029685B6891436A687E6A9A43A3003964D1
:1050E0007A64013EBB62FA6A964224D0301CFFF714
:1050F00071FE011C381C5030202203F0C3FB7B6D75
:105100000122386D9A405821131CC91982008A184F
:10511000183A12681A420CD0BB6AFA691720D258A2
:1051200040425043174BC018FEF726FDB9690011E5
:105130008855013ED7E7083DC4E7FD6A786A013526
:10514000FD62BD692D18BD611BE7C3B2381C50302C
:105150000370437083700023C37003717969012366
:10516000437100F0D7F8BD4617B0F0BDDC0E00204B
:10517000FFFFFF00FFFF0FFF10E000E040000050C6
:10518000FFFFFFFBE9FFFF16014B18607047C046A9
:10519000E80E0020014B18687047C046E80E00205A
:1051A000014B18607047C046E40E0020014B1868A0
:1051B0007047C046E40E0020014B18687047C04697
:1051C00068010020F7B52F4F73467146381C0193D4
:1051D000FEF798FEFBF7E8FB009001F017F9061CBC
:1051E000FDF7BEFD284D1022041C0099286803F02D
:1051F00067FB32882B68381C1A74120A5A74B288FA
:105200009A74120ADA74214A12680532D27F002A8F
:1052100003D0A2791A75627902E062791A75A279CF
:105220005A75E2799A751A4A6B6812881A70120ACE
:105230005A70184A52889A70120ADA70164A5288BE
:105240001A71120A5A71154AD2889A71120ADA71C1
:10525000134AAB68920A1A70124A920AD2B25A7072
:105260009A70114A920AD2B2DA701A710F4A920AEF
:10527000D2B25A719A710E4A920ADA710199FEF706
:1052800059FEF7BD655100006C0100203403002079
:10529000FE030000FC9B0000FCAF0000F8BF000014
:1052A0000000000000040000009C000000B00000AE
:1052B00000C00000F7B50A4C7146061C201C75465C
:1052C000FEF720FE074A694681CA81C16B46B600D7
:1052D000F658201C291CFEF72DFE301CFEBDC046D2
:1052E000555200009089000070B5084C7146201C92
:1052F0007646FEF707FE064B201CDB69311C5D7805
:10530000EDB2FEF717FE281C70BDC04689520000A2
:105310006C010020F8B5144D041C0F1C281C7146AC
:105320007646FEF7EFFD114BFF215A6A11701049C6
:105330009C620F60A0782778596B474320793F180B
:1053400060794006400E784308609869A02101709A
:10535000D969281C1378FF2B02D10B78022BF9D0C6
:10536000311CFEF7E7FDF8BDB55200006C010020CE
:105370007C04002038B50D4C7146201C7546FEF7A4
:10538000C1FD0B4AD1694B780A49DBB20B72012B84
:1053900005D0022B05D1936901225A7001E0FDF777
:1053A0005BFE291C201CFEF7C5FD38BD155300000F
:1053B0006C0100207C04002038B50D4C7146201C87
:1053C0007546FEF79FFD0B4BDB68002B0BD00A4A9E
:1053D000DBB2106C7F2119404832017093700133A9
:1053E0005370FFF7C7FF291C201CFEF7A3FD38BD33
:1053F000595300007C0400206C01002070B50F4C54
:105400007146201C7546FEF77DFD0D4B261C1B7A50
:105410000C4C012B05D0022B05D1A269002353703F
:1054200001E0FDF72BFE236C7F211A78301C8A43A4
:105430001A70291CFEF77EFD70BDC0469D5300000A
:105440007C0400206C010020F7B51E4E7346301C12
:1054500071460193FEF756FD1B4D00241B4E337A17
:10546000012B07D0002B18D0022B17D1184B9B69AA
:105470005C7813E0FDF712FE041C002D0BD1FDF744
:10548000FDFD2E23FF33013B002B01D0C046FAE780
:10549000FDF7E2FD0C4D013D00E01C1C0C4FFA69CC
:1054A0005378327A9A4206D0FFF7A8FFFB69074A81
:1054B0005B78137201E0002CD0D102480199FEF70D
:1054C00039FDF7BDE9530000FF2C01007C040020EA
:1054D0006C010020F7B5164D7346071C0E1C281CE6
:1054E00071460193FEF70EFDFFF7AEFF114C8022CF
:1054F000236C52421978606C0A431A70391C321CB2
:1055000003F0DEF9236CF6B218787F229043311C49
:105510001140021C0A431A704834A670FFF72AFF94
:10552000FFF792FF281C0199FEF704FDF7BDC04666
:10553000755400006C010020F8B5FBF735FA00F057
:1055400065FFFDF70DFC1A4C051C666B03F01AF89D
:105550007060FFF737FE174B1B681888E36B020A71
:105560005A711871FFF7A6FEE26BC6B296712B68EE
:10557000EF790136FF1801374743381C00F0EFF987
:105580003A1C0021051C206403F0DCF9231C48337D
:10559000013500225E7065649A7002F0EDFF064BE3
:1055A0005860A023DB059A7CE36C1A70F8BDC046F6
:1055B0006C010020E80E00207C040020024BDB6917
:1055C0001878C0B27047C0466C010020024BDB69FE
:1055D0009878C0B27047C0466C010020014BDB696F
:1055E000987070476C010020024BDB69D878C0B21C
:1055F0007047C0466C010020014BDB69D8707047D2
:105600006C010020014BDB69586870476C01002079
:10561000024BDB695A6858607047C0466C01002035
:10562000024BDB69187AC0B27047C0466C0100209B
:10563000014BDB69187270476C010020024BDB697B
:10564000587AC0B27047C0466C010020014BDB693C
:10565000587270476C010020024BDB69D87AC0B2E7
:105660007047C0466C010020014BDB69D87270475F
:105670006C010020024BDB69987AC0B27047C046CB
:105680006C010020014BDB69987270476C010020AF
:10569000024BDB69187BC0B27047C0466C0100202A
:1056A000014BDB69187370476C010020024BDB690A
:1056B000587BC0B27047C0466C010020014BDB69CB
:1056C000587370476C010020034BA0229B691A702D
:1056D0001A78A02AFCD070476C010020034BC2B29C
:1056E0009B691A701A788242FCD070476C010020C6
:1056F000014B5B6A187070476C010020024B5B6ABB
:105700001878C0B27047C0466C010020014B1B687E
:1057100018887047E80E002008B5FFF795FE024B89
:105720000022DA6008BDC0467C04002070B5074B3B
:10573000074CDA6BE668011C9579586C2A1C8019B5
:10574000751903F0BDF8E56070BDC0466C0100201E
:105750007C04002073B56C46E271194A0734556D1C
:105760002E7886422AD1FF2028701366131C9433AA
:105770001B6820789B6880009165D4651871114B77
:1057800006980C7818608878536B60430C794979D7
:1057900000194906490E414319609169A0230B7015
:1057A000516DD3690A78FF2A02D11A78002AF9D0FC
:1057B0000A78FF2A02D11A780A2AF3D073BDC046AC
:1057C0006C0100207C04002070B5144C636B1D79C3
:1057D000EDB2012D21D1854058781E78000230436A
:1057E0009E7836043043DE7836063043284214D0A3
:1057F000FF2018710A48A16302608C780D78C9787F
:105800006C434906490E074A6143506B9269016037
:10581000772111701A79FF2AFCD070BDEC010020AD
:105820007C0400206C010020014BDB6B1878704772
:10583000EC010020014BDB6B18707047EC0100207D
:10584000014BDB6B58787047EC010020014BDB6BA0
:1058500058707047EC010020014BDB6B9878704763
:10586000EC010020014BDB6B98707047EC010020CD
:10587000014BDB6BD8787047EC010020014BDB6BF0
:10588000D8707047EC010020002303600B601B4BB5
:10589000F7B59A4230DC1312194C122B1BD89B001F
:1058A000E418646E002C27D0E368013B5D1C23D014
:1058B000D5B2019565681E1CEF5C019D013BED1B97
:1058C000F4D42768B300DB59002B15D05B190360B3
:1058D000A3689B5D0EE0A36B266B013B0CD35D00C0
:1058E000755B551BF9D4E66A9B00F25852190260A9
:1058F000626BD3585D1B0D60F7BDC046FFEF000023
:105900006C010020C02208B5D2000B4B904206D19A
:105910009B691A78052A0DD005221A700AE01B6CC3
:1059200084221B7892005B065B0E9B18984201D183
:10593000FFF764FD08BDC0466C01002038B5051CAA
:105940001C1C181C8D4209DB0498954206DAC01A0B
:105950006D1A6843511A02F033FF201838BD044A0B
:10596000033013688010800018181060181C7047EE
:10597000F40E0020F8B501254E1E6C00B54202DA87
:10598000165FB0420CDAA61E1D5F115F9B5F401AC6
:10599000EB1A5843935FC91A02F012FF4019F8BD81
:1059A0000135E9E7014B18607047C046040F00203D
:1059B000014B18687047C046040F0020014B186067
:1059C0007047C046FC0E0020014B18687047C04667
:1059D000FC0E0020014B18607047C046000F0020ED
:1059E000014B18687047C046000F0020014B186833
:1059F0007047C04638030020F0B5394F8BB075466C
:105A000003950E1C051C7146381C0024019202935C
:105A1000FEF778FA6A464F239482201C137504A976
:105A2000221C0494FFF7D0FE2E4B201C1A685368EA
:105A3000013B10D3990074581168A4464C1EF7D34B
:105A40009768794359180131890049596746C91B3C
:105A50004018211CF2E7D16802F0B2FE224B071C6D
:105A60001C68224E6588002D03D1336840229A605D
:105A70000CE0A1883268681A8001791A009202F05D
:105A80009FFE6E2800DD6E20009B9860A379642243
:105A90005343019A5343029A13412278002A04D0B7
:105AA000124A1268926853439B11326806A9D36068
:105AB00001230B7002234B708B707C235B42002010
:105AC000CB7008AA5023888008950B710997FFF7BF
:105AD0007BFE03480399FEF72DFA0BB0F0BDC046DC
